:100000007EC1000099C1000097C1000095C10000A9
:1000100093C1000091C100000FC2000031C2000076
:1000200053C2000075C2000087C1000085C10000F6
:1000300083C100000C948C110C946E0C0C94970CE2
:100040000C94C00C0C94E90C0C94120D0C943B0D08
:100050000C94640D0C948D0D0C94B60D0C94DF0D66
:100060006BC100000C94950A67C1000065C10000D7
:100070000C94CA0A61C100005FC100005DC10000AC
:100080005BC1000059C1000057C1000055C100000C
:1000900053C1000051C100004FC100004DC100001C
:1000A0004BC1000049C1000047C1000045C100002C
:1000B00043C1000041C100000C94AF110C94A20F89
:1000C0000C94CB0F0C94F40F0C941D100C94461050
:1000D0000C946F1031C100002FC100002DC1000031
:1000E0002BC1000029C1000027C1000025C100006C
:1000F00023C1000021C100001FC100001DC100007C
:100100001BC1000019C1000017C1000015C100008B
:1001100013C1000011C100000FC100000C94B60B08
:100120000C94E40B0C94120C0C94400C05C10000D0
:1001300003C100000C94080E0C94310E0C945A0E5E
:100140000C94830E0C94AC0E0C94D50E0C94FE0EF5
:100150000C94270F0C94500F0C94790FEDC00000F5
:10016000EBC00000E9C00000E7C00000E5C00000EF
:10017000E3C00000E1C00000DFC00000DDC00000FF
:10018000DBC00000D9C00000D7C00000D5C000000F
:10019000D3C00000D1C00000CFC00000CDC000001F
:1001A000CBC00000C9C00000C7C00000C5C000002F
:1001B000C3C00000C1C00000BFC00000BDC000003F
:1001C000BBC00000B9C00000B7C00000B5C000004F
:1001D000B3C00000B1C00000AFC00000ADC000005F
:1001E000ABC00000A9C00000A7C00000A5C000006F
:1001F000A3C000000C94341E0C94E51E6E616E00CA
:10020000696E660000407A10F35A00A0724E180919
:100210000010A5D4E80000E87648170000E40B546D
:10022000020000CA9A3B000000E1F505000080963C
:100230009800000040420F000000A086010000006E
:10024000102700000000E803000000006400000028
:1002500000000A00000000000100000000002C76F1
:10026000D888DC674F0823DFC1DFAE59E1B1B7960C
:10027000E5E3E453C63AE651997696E8E6C2842669
:10028000EB898C9B62ED407C6FFCEFBC9C9F40F245
:10029000BAA56FA5F490055A2AF75C936B6CF967C1
:1002A0006DC11BFCE0E40D47FEF520E6B500D0ED86
:1002B000902E0300943577050080841E08000020EE
:1002C0004E0A000000C80C333333330F986E12838C
:1002D0001141EF8D2114893BE65516CFFEE6DB1860
:1002E000D1844B381BF77C1D901DA4BBE424203225
:1002F00084725E228100C9F124ECA1E53D2711241E
:100300001FBECFEFCDBFDFE2DEBF11E2A0E0B0E263
:10031000E6EEF5E502C005900D92AC3EB107D9F7C7
:1003200025E2ACEEB1E201C01D92AF33B207E1F7B6
:100330000E944E200C94F12A63CE0F931F93CF930B
:10034000DF93CDB7DEB72697CDBFDEBF09831A8313
:100350002B833C834D831E82BE016F5F7F4FCFD2C4
:100360002696CDBFDEBFDF91CF911F910F910895EB
:100370000F931F93CF93DF93282F30E0F9017196ED
:1003800044E0EE0FFF1F4A95E1F760910401A09150
:100390000301A9014C5F5F4FC1E0D0E08E01042E44
:1003A00001C0000F0A94EAF7082E01C0CC0F0A948E
:1003B000EAF7C02BAC23B0E08D01042E02C01595E6
:1003C00007950A94E2F700FD1BC0082E02C0B59500
:1003D000A7950A94E2F7A0FD15C0C6236C2F70E024
:1003E000DB0102C0B595A7954A95E2F7A0FD0CC0C8
:1003F00002C0759567958A95E2F7862F817005C0D2
:1004000084E003C083E001C082E091819063918326
:10041000F901EE0FFF1FE058FC4D0190F081E02D37
:10042000309729F0DF91CF911F910F910994DF91BF
:10043000CF911F910F9108951F920F920FB60F92B7
:1004400011242F933F934F935F936F937F938F93D9
:100450009F93AF93BF93EF93FF9380E089DFFF916A
:10046000EF91BF91AF919F918F917F916F915F912C
:100470004F913F912F910F900FBE0F901F901895A5
:100480001F920F920FB60F9211242F933F934F9309
:100490005F936F937F938F939F93AF93BF93EF93EC
:1004A000FF9381E065DFFF91EF91BF91AF919F9145
:1004B0008F917F916F915F914F913F912F910F900D
:1004C0000FBE0F901F9018951F920F920FB60F92AC
:1004D00011242F933F934F935F936F937F938F9349
:1004E0009F93AF93BF93EF93FF9382E041DFFF9120
:1004F000EF91BF91AF919F918F917F916F915F919C
:100500004F913F912F910F900FBE0F901F90189514
:100510001F920F920FB60F9211242F933F934F9378
:100520005F936F937F938F939F93AF93BF93EF935B
:10053000FF9383E01DDFFF91EF91BF91AF919F91FA
:100540008F917F916F915F914F913F912F910F907C
:100550000FBE0F901F901895009709F495C0803C2E
:10056000910511F460E105C0811524E0920719F4AA
:1005700064E080E087C0803821E0920711F462E0F7
:10058000F8CF811521E0920711F461E0F2CF8038B5
:1005900023E0920711F461E005C0811522E0920783
:1005A00019F462E081E06EC0803223E0920719F412
:1005B00064E082E067C0811528E0920711F461E0F1
:1005C0005AC0811529E0920711F461E04DC08115F0
:1005D0002AE0920711F461E054C0803428E09207C9
:1005E00011F462E048C0803429E0920711F462E01F
:1005F0003BC0803928E0920711F464E03CC08039A8
:1006000029E0920711F464E02FC080392AE09207B4
:1006100011F464E036C0803C28E0920711F468E0F1
:100620002AC0803C29E0920711F468E01DC0803A9E
:1006300028E0920711F460E11EC0803A29E0920799
:1006400011F460E111C0803A2AE0920711F460E1F0
:1006500018C0803B28E0920711F460E20CC0803B98
:1006600029E0920719F460E284E00CC0803824E0AD
:10067000920719F460E483E005C0803A944021F4C5
:1006800060E485E00C94691408958F929F92AF9274
:10069000BF92CF92DF92EF92FF920F931F93CF936F
:1006A000DF93EC016A017B0148015901B901A801FE
:1006B000A3E07695679557954795AA95D1F7D90107
:1006C000C80116E1B695A795979587951A95D1F724
:1006D0002C8122FD08C07695679557954795B6956C
:1006E000A795979587954C155D056E057F0508F4D0
:1006F0009AC0C816D906EA06FB0608F494C08C8195
:1007000082FD04C0CC0CDD1CEE1CFF1CC501B40135
:10071000A70196010E94D8278FEF90E0A0E0B0E0FB
:1007200019EF281739074A075B0758F0880F991FF8
:10073000AA1FBB1F1D3F0CF481601F5F173089F794
:100740004CC017FF4AC0D701C60103E0880F991FAC
:10075000AA1FBB1F0A95D1F7881A990AAA0ABB0AD1
:10076000812F992787FD90951E3FE4F46DEF7FEF71
:10077000681B790BA501940104C0220F331F441F8D
:10078000551F6A95D2F7CA01B90146015701B694BF
:10079000A79497948794680D791D8A1D9B1DA701C6
:1007A000960118C09C012D5F3F4FD701C60104C0C0
:1007B000880F991FAA1FBB1F2A95D2F79C01AD0174
:1007C000BC01CD019695879577956795680D791D44
:1007D0008A1D9B1D0E94D8271DC023E0210FD70131
:1007E000C60104C0880F991FAA1FBB1F2A95D2F704
:1007F0009C01AD01BC01CD019695879577956795D4
:10080000680D791D8A1D9B1D0E94D8272150310932
:1008100041095109832F8F701295107F812B8F838F
:100820002E8381E001C080E0DF91CF911F910F9175
:10083000FF90EF90DF90CF90BF90AF909F908F9000
:1008400008950F931F93CF93DF93EC018B0184DE08
:100850008D818F738D83F80184819581892B968199
:10086000992311F098E001C090E0892B8D83F80165
:10087000408151816281738100E016E32EE631E010
:10088000CE0103DF9C8198609C839C8190619C8356
:10089000DF91CF911F910F910895CF92DF92EF9248
:1008A000FF920F931F93CF93DF93EC0168017901BF
:1008B000F694E794D794C7944C155D056E057F05B3
:1008C00078F46A017B01CC0CDD1CEE1CFF1CC90115
:1008D000B801A70196010E94D8272150310902C012
:1008E00020E030E0832F8F708F832E83DF91CF91B4
:1008F0001F910F91FF90EF90DF90CF900895EF92AE
:10090000FF920F931F93CF93DF931F92CDB7DEB764
:100910007C018B01298320DEF70184818F7E848313
:10092000F801348132502981F0EAEF16F8E0FF0631
:1009300031F480914E0684FD84C021E123C080EB18
:10094000E81688E0F80609F47CC0E0EAEE16E9E073
:10095000FE0631F480916E0684FD71C029E112C05B
:10096000F0EBEF16F9E0FF0609F469C080EAE8163B
:100970008AE0F80639F480918E0684FF02C025E2F1
:1009800001C021E2A22FA695A695A695E0E2AE9F12
:10099000D0011124BA5F277081E090E0022E01C0DF
:1009A000880F0A94EAF711968C931197323010F45D
:1009B00030E401C030E0FD017096E20FF11D2FB769
:1009C000F8949081977090839081932B90832FBFA0
:1009D00015968C93F7018581806C8583F80184815D
:1009E0008D7FF701813019F48581826002C0858195
:1009F0008D7F8583F8018581F701882319F0858132
:100A0000846002C085818B7F8583F801408151819C
:100A10006281738100E016E32EE631E0C7013DDF1D
:100A2000F7018481886084838481806184830F904E
:100A3000DF91CF911F910F91FF90EF9008952DE1DD
:100A4000A1CF25E19FCF61507109810991096115FD
:100A5000710581059105B9F7089560E076E38EE6AA
:100A600091E00895FC011386148615861686178674
:100A7000108A118A128A13821482158216821782B2
:100A8000108611861286178A108E118E128E138A86
:100A9000148A158A168A138E148E80E090E883A734
:100AA00094A717A210A68FEF9FE781A792A78FEFB9
:100AB0009FEF85A396A311AA12AA13AA14AA618371
:100AC0000895FC0180E090E883A794A717A210A6E0
:100AD0008FEF9FE781A792A78FEF9FEF85A396A344
:100AE00011AA12AA13AA14AA08959091A10995FF18
:100AF000FCCF8093A0098091A10986FFFCCF80E400
:100B00008093A1098091A0090895FF920F931F93EC
:100B1000CF93DF9300E616E080E2F82EF801F5822D
:100B20009CDFDC01CB019C01AD0160E070E080E066
:100B300090E0215C3D4B404F5F4F6F4F7F4F8F4F99
:100B40009F4F0E94EB2220E03BE147EB5AE40E94DA
:100B5000DC210E944922B901CA0175DFF801F68241
:100B6000DF91CF911F910F91FF900895FF920F9306
:100B70001F93CF93DF9300E616E090E2F92EF80181
:100B8000F6826BDFDC01CB019C01AD0160E070E01F
:100B900080E090E0215C3D4B404F5F4F6F4F7F4FB7
:100BA0008F4F9F4F0E94EB2220E03BE147EB5AE43E
:100BB0000E94DC210E944922B901CA0144DFF801E8
:100BC000F582DF91CF911F910F91FF90089590E2F0
:100BD000E0E6F6E09683805888DF3FDF28EC30E0DF
:100BE00040E050E00E943128215C3D4B404F5F4F78
:100BF0006F4F7F4F8F4F9F4F0E94EB2220E03BE1D2
:100C000047EB5AE40E94DC210E944922B901CA0143
:100C10001ADF7BCF90E2E0E6F6E0958366DF1DDF2A
:100C200024E630E040E050E00E943128215C3D4B5A
:100C3000404F5F4F6F4F7F4F8F4F9F4F0E94EB2270
:100C400020E03BE147EB5AE40E94DC210E9449226C
:100C5000B901CA01F8DE8ADF80E090E008952F92A2
:100C60003F924F925F926F927F928F929F92AF923C
:100C7000BF92CF92DF92EF92FF920F931F93CF9389
:100C8000DF93CDB7DEB72697CDBFDEBF8D839E83C2
:100C900011E010936506E1DE4B015C019B01A501AB
:100CA00060E070E080E090E0215C3D4B404F5F4FA2
:100CB0006F4F7F4F8F4F9F4F0E94EB2220E03BE111
:100CC00047EB5AE40E94DC210E944922B901CA0183
:100CD000BADE10936606ED81FE818181833008F0D3
:100CE0004AC2238C348C5101C12CD12CE12CF12C23
:100CF00000E010E023813481458156816781708551
:100D0000818592850E9485280E94EB220E941524ED
:100D1000ED81FE81258D368D478D50A10E94AE2339
:100D200069837A838B839C83ED81FE81238534855F
:100D30004585568567857089818992890E945A28E0
:100D40000E94AA220E941524ED81FE8121A132A1D8
:100D500043A154A10E94AE236B017C01ED81FE8171
:100D60008081823009F4D7C008F05BC0882309F481
:100D7000A9C0813009F0DFC180E029DFED81FE816B
:100D8000238D348D40E050E063897489858996898C
:100D90000E94D827CA01B9010E94AE22ED81FE81CE
:100DA000258D368D478D50A10E94AE239F938F9342
:100DB0007F936F93ED81FE8181811F928F938CEEE3
:100DC00090E29F938F9380913E258F9380913D2554
:100DD0008F930E942A2A80E4FADEED81FE81238D22
:100DE000348D40E050E06789708D818D928D0E9436
:100DF000FA27CA01B9010E94B022ED81FE8121A12A
:100E000032A143A154A10E94AE239F938F937F935D
:100E10006F93ED81FE8181811F928F938EEF90E21F
:100E20007EC1833009F4DEC0843009F084C180E0E3
:100E3000CEDEED81FE8161A972A983A994A90E94E9
:100E4000B022ED81FE8121A132A143A154A10E94D3
:100E5000AE23ED81FE81258D368D478D50A10E94F8
:100E6000AE239F938F937F936F93ED81FE8181815A
:100E70001F928F938BE491E29F938F9380913E25F5
:100E80008F9380913D258F930E942A2A80E49FDED4
:100E900079816A819B818C81272F362F492F582F8A
:100EA0006C2D7D2D8E2D9F2D0E94AE239F938F93B1
:100EB0007F936F93ED81FE8181811F928F938DE5EA
:100EC00091E22DC180E083DEFC81FF938B818F93C3
:100ED0009A819F93E981EF93ED81FE8181811F9239
:100EE0008F9388EC90E29F938F9380913E258F9310
:100EF00080913D258F930E942A2A80E468DEFF922C
:100F0000EF92DF92CF92ED81FE8181811F928F93CC
:100F10008AED90E204C180E05ADEED81FE8165A198
:100F200076A16F3FFFEF7F0769F080E090E00E94BD
:100F3000AE22ED81FE81258D368D478D50A10E9418
:100F4000AE2304C060E070E080EC9FE79F938F9336
:100F50007F936F93ED81FE8181811F928F9380E15A
:100F600091E29F938F9380913E258F9380913D25B1
:100F70008F930E942A2A80E42ADEED81FE8163A5F8
:100F800074A5CDBFDEBF611590E8790779F0882799
:100F900077FD8095982F0E94B022ED81FE8121A1DE
:100FA00032A143A154A10E94AE2304C060E070E0CE
:100FB00080EC9FE79F938F937F936F93ED81FE81EA
:100FC00081811F928F9382E291E29F938F93809110
:100FD0003E258F9380913D258F930E942A2ACDBF75
:100FE000DEBFA9C080E0F3DD20E030E040E550E462
:100FF000B981AA811B81BC806B2F7A2F812F9B2DF9
:101000000E94DC210E947E22B62EED81FE8181812C
:101010001F928F9384E391E29F938F9380913E255B
:101020008F9380913D258F930E942A2A0F900F90D5
:101030000F900F900F900F9010E060E070E01B1584
:1010400018F4812FE7DD02C080E2E4DD1F5F183075
:10105000A1F760913D2570913E2588E391E20E94C1
:101060006B2A80E4B4DDED81FE8181811F928F9334
:101070008FE391E29F938F9380913E258F93809190
:101080003D258F930E942A2A20E030E040E855E475
:10109000ED81FE8161A172A183A194A10E94AE2382
:1010A000B62EA72E982E892EB501C401272F362FD4
:1010B000492F582F60E070E080E091E40E94DC212D
:1010C0002C2D3D2D4E2D5F2D0E94AE230E947E22A1
:1010D000F62E0F900F900F900F900F900F9010E042
:1010E00060E070E0F11618F0812F94DD02C080E21C
:1010F00091DD1F5F1830A1F78F929F92AF92BF9240
:1011000083E491E29F938F9380913E258F9380910A
:101110003D258F930E942A2ACDBFDEBF0CC09F932E
:101120008F9380913E258F9380913D258F930E94D0
:101130002A2ACDBFDEBFED81FE81138A148A158A6B
:10114000168A1382148215821682178210861186DF
:101150001286178A108E118E128E138614861586AB
:1011600016861786108A118A128A15A616A617A641
:1011700010AA138E148E80E02696CDBFDEBFDF91BD
:10118000CF911F910F91FF90EF90DF90CF90BF9084
:10119000AF909F908F907F906F905F904F903F9017
:1011A0002F900895CF92DF92EF92FF920F931F93AB
:1011B00041E050E068E080E696E00E949A1441E049
:1011C00050E062E080E696E00E949A14C12CD12C97
:1011D000760100E814E82EE130E040E060E070E0E5
:1011E00080EA99E0AAD839DC24E130E040E050E020
:1011F0000E943128215C3D4B404F5F4F6F4F7F4F26
:101200008F4F9F4F0E94EB2220E03BE147EB5AE4D7
:101210000E94DC210E944922B901CA011F910F914D
:10122000FF90EF90DF90CF900ECCFF920F931F9323
:10123000CF93DF93F12C87E0F81203C08FE155DCE8
:1012400002C080E052DC09DC2EE130E040E050E0FA
:101250000E943128215C3D4B404F5F4F6F4F7F4FC5
:101260008F4F9F4F0E94EB2220E03BE147EB5AE477
:101270000E94DC210E9449228901D42FC52FB90187
:101280008D2F9C2FE0DB72DCF39488E0F812D3CF33
:10129000F12C85E08F1518F48FE127DC02C080E087
:1012A00024DCB8018D2F9C2FCEDB60DCF39488E02A
:1012B000F812EFCFF12C84E08F1518F48FE115DCD4
:1012C00002C080E012DCB8018D2F9C2FBCDB4EDC0D
:1012D000F39488E0F812EFCFF12C83E08F1518F427
:1012E0008FE103DC02C080E000DCB8018D2F9C2F71
:1012F000AADB3CDCF39488E0F812EFCFF12C82E01B
:101300008F1518F48FE1F1DB02C080E0EEDBB8014D
:101310008D2F9C2F98DB2ADCF39488E0F812EFCF16
:10132000F12C81E08F1518F48FE1DFDB02C080E043
:10133000DCDBB8018D2F9C2F86DB18DCF39488E072
:10134000F812EFCFF12CFF2019F08FE1CEDB02C0B5
:1013500080E0CBDBB8018D2F9C2F75DB07DCF3948D
:1013600088E0F812F0CF78E0F72E8FE1BEDBB8010D
:101370008D2F9C2F68DBFADBFA94B9F7DF91CF91C0
:101380001F910F91FF900895DF92EF92FF920F93BC
:101390001F93CF93DF93C0E6D6E0E0E2EE2EEE821D
:1013A00080E4A3DB5ADB24E630E040E050E00E941A
:1013B0003128215C3D4B404F5F4F6F4F7F4F8F4F28
:1013C0009F4F0E94EB2220E03BE147EB5AE40E9452
:1013D000DC210E944922D22EF32E8A01622F7F2D1A
:1013E000C80131DB92DBED826D2D7F2DC8012BDB37
:1013F0001CDFEE8280E879DB6D2D7F2DC801DF9147
:10140000CF911F910F91FF90EF90DF901CCBCF9267
:10141000DF92EF92FF92CF93DF93C4DEC0E6D6E077
:1014200081E08E831ADB6B017C0122E330E040E037
:1014300050E00E94312829513C4F4F4F5F4F6F4F72
:101440007F4F8F4F9F4F0E94EB2220E030E84BEB05
:1014500055E40E94DC210E944922B901CA01F3DA55
:1014600080E28E8389E341DBC701B60122E030E0F0
:1014700040E050E00E94312829513C4F4F4F5F4FD0
:101480006F4F7F4F8F4F9F4F0E94EB2220E030E83D
:101490004BEB55E40E94DC210E9449227901D42FB4
:1014A000C52FB9018D2F9C2FCEDA2FDB84E11DDBF8
:1014B000B7018D2F9C2FC7DA28DB85E516DBB70136
:1014C0008D2F9C2FC0DA21DB8DE60FDBB7018D2F2E
:1014D0009C2FB9DA1ADB88E708DBB7018D2F9C2F28
:1014E000B2DA13DB88E301DBB7018D2F9C2FABDA77
:1014F0000CDB8CE0FADAB7018D2F9C2FA4DA05DB28
:1015000081E0F3DAB7018D2F9C2F9DDAFEDA86E0B9
:10151000ECDAB7018D2F9C2F96DAF7DADF91CF91B5
:10152000FF90EF90DF90CF902FCF1F920F920FB6CA
:101530000F9211242F933F938F939F93EF93FF93D9
:101540002091A00880910B2430910A2490910D24C1
:10155000831B892330910C24831789F080910B24FD
:1015600096959823E0910824F0910924E90FF11D44
:1015700020838F5F90910D24892380930B24FF910A
:10158000EF919F918F913F912F910F900FBE0F90F0
:101590001F9018951F920F920FB60F9211242F9340
:1015A0003F938F939F93EF93FF932091B008809187
:1015B00011243091102490911324831B892330919E
:1015C0001224831789F08091112496959823E09135
:1015D0000E24F0910F24E90FF11D20838F5F90916D
:1015E0001324892380931124FF91EF919F918F9170
:1015F0003F912F910F900FBE0F901F901895CF9392
:10160000DF93CDB7DEB72797CDBFDEBF40E468E8F4
:1016100073E288E094E251D0892B09F048C040E49D
:1016200068EC73E28EE094E248D0892B09F03FC069
:1016300043E050E068E080E496E00E949A1440E0C5
:1016400050E064E080E496E00E949A1443E050E0A9
:1016500060E880E496E00E949A1440E050E060E484
:1016600080E496E00E949A1480E092ECA1E0B0E061
:1016700089839A83AB83BC8383E08D831E8281E060
:101680008F83BE016F5F7F4F80EA98E0DAD8809148
:10169000A30880638093A308BE016F5F7F4F80EB38
:1016A00098E0CFD88091B30880638093B3082796E1
:1016B000CDBFDEBFDF91CF910895FC01128213826E
:1016C0004483440F415045836083718380E090E000
:1016D000089543E050E061E080E696E00E949A14AD
:1016E00041E050E060E180E496E00E949A1441E01D
:1016F00050E060E280E496E00E949A1441E050E0FD
:1017000068E080E896E00E949A1441E050E060E2D0
:1017100080E696E00E949A1443E050E068E080E69C
:1017200096E00E949A1443E050E062E080E696E082
:101730000E949A1440E050E161E080E496E00E944B
:101740009A1440E050E162E080E496E00E949A142E
:1017500040E050E160E180E696E00E949A1440E0AB
:1017600058E160E280E096E00C949A141F920F9288
:101770000FB60F9211242F933F934F935F936F9364
:101780007F938F939F93AF93BF93EF93FF93E0E08B
:10179000F2E044A155A1E0911424F091152461E0F8
:1017A00080E092E00995FF91EF91BF91AF919F91F9
:1017B0008F917F916F915F914F913F912F910F90FA
:1017C0000FBE0F901F9018951F920F920FB60F9299
:1017D00011242F933F934F935F936F937F938F9336
:1017E0009F93AF93BF93EF93FF93E8E2F2E04481BE
:1017F0005581E0911424F091152462E080E092E09C
:101800000995FF91EF91BF91AF919F918F917F913A
:101810006F915F914F913F912F910F900FBE0F905D
:101820001F9018951F920F920FB60F9211242F93AD
:101830003F934F935F936F937F938F939F93AF9358
:10184000BF93EF93FF93E0E3F2E044815581E09191
:101850001424F091152464E080E092E00995FF9152
:10186000EF91BF91AF919F918F917F916F915F9118
:101870004F913F912F910F900FBE0F901F90189591
:101880001F920F920FB60F9211242F933F934F93F5
:101890005F936F937F938F939F93AF93BF93EF93D8
:1018A000FF93E8E3F2E044815581E0911424F09144
:1018B000152468E080E092E00995FF91EF91BF91D7
:1018C000AF919F918F917F916F915F914F913F91D8
:1018D0002F910F900FBE0F901F9018951F920F928F
:1018E0000FB60F9211242F933F934F935F936F93F3
:1018F0007F938F939F93AF93BF93EF93FF93E09169
:101900001E22F0911F22309709F00995FF91EF9167
:10191000BF91AF919F918F917F916F915F914F9107
:101920003F912F910F900FBE0F901F9018951F920F
:101930000F920FB60F9211242F933F934F935F9303
:101940006F937F938F939F93AF93BF93EF93FF9387
:10195000E0911C22F0911D22309709F00995FF912A
:10196000EF91BF91AF919F918F917F916F915F9117
:101970004F913F912F910F900FBE0F901F90189590
:101980001F920F920FB60F9211242F933F934F93F4
:101990005F936F937F938F939F93AF93BF93EF93D7
:1019A000FF93E0911A22F0911B22309709F00995DC
:1019B000FF91EF91BF91AF919F918F917F916F9127
:1019C0005F914F913F912F910F900FBE0F901F90FD
:1019D00018951F920F920FB60F9211242F933F93D9
:1019E0004F935F936F937F938F939F93AF93BF9327
:1019F000EF93FF93E0911822F0911922309709F0AC
:101A00000995FF91EF91BF91AF919F918F917F9138
:101A10006F915F914F913F912F910F900FBE0F905B
:101A20001F9018951F920F920FB60F9211242F93AB
:101A30003F934F935F936F937F938F939F93AF9356
:101A4000BF93EF93FF93E0911622F0911722309706
:101A500009F00995FF91EF91BF91AF919F918F91FF
:101A60007F916F915F914F913F912F910F900FBE9A
:101A70000F901F9018951F920F920FB60F9211247E
:101A80002F933F934F935F936F937F938F939F9386
:101A9000AF93BF93EF93FF93E0911422F09115223F
:101AA000309709F00995FF91EF91BF91AF919F9108
:101AB0008F917F916F915F914F913F912F910F90F7
:101AC0000FBE0F901F9018951F920F920FB60F9296
:101AD00011242F933F934F935F936F937F938F9333
:101AE0009F93AF93BF93EF93FF93E0911222F091F6
:101AF0001322309709F00995FF91EF91BF91AF91B3
:101B00009F918F917F916F915F914F913F912F9115
:101B10000F900FBE0F901F9018951F920F920FB647
:101B20000F9211242F933F934F935F936F937F9363
:101B30008F939F93AF93BF93EF93FF93E091102206
:101B4000F0911122309709F00995FF91EF91BF9123
:101B5000AF919F918F917F916F915F914F913F9145
:101B60002F910F900FBE0F901F9018951F920F92FC
:101B70000FB60F9211242F933F934F935F936F9360
:101B80007F938F939F93AF93BF93EF93FF93E091D6
:101B90000E22F0910F22309709F00995FF91EF91F5
:101BA000BF91AF919F918F917F916F915F914F9175
:101BB0003F912F910F900FBE0F901F9018951F927D
:101BC0000F920FB60F9211242F933F934F935F9371
:101BD0006F937F938F939F93AF93BF93EF93FF93F5
:101BE000E0910C22F0910D22309709F00995FF91B8
:101BF000EF91BF91AF919F918F917F916F915F9185
:101C00004F913F912F910F900FBE0F901F901895FD
:101C10001F920F920FB60F9211242F933F934F9361
:101C20005F936F937F938F939F93AF93BF93EF9344
:101C3000FF93E0910A22F0910B22309709F0099569
:101C4000FF91EF91BF91AF919F918F917F916F9194
:101C50005F914F913F912F910F900FBE0F901F906A
:101C600018951F920F920FB60F9211242F933F9346
:101C70004F935F936F937F938F939F93AF93BF9394
:101C8000EF93FF93E0910822F0910922309709F039
:101C90000995FF91EF91BF91AF919F918F917F91A6
:101CA0006F915F914F913F912F910F900FBE0F90C9
:101CB0001F9018951F920F920FB60F9211242F9319
:101CC0003F934F935F936F937F938F939F93AF93C4
:101CD000BF93EF93FF93E0910622F0910722309794
:101CE00009F00995FF91EF91BF91AF919F918F916D
:101CF0007F916F915F914F913F912F910F900FBE08
:101D00000F901F9018951F920F920FB60F921124EB
:101D10002F933F934F935F936F937F938F939F93F3
:101D2000AF93BF93EF93FF93E0910422F0910522CC
:101D3000309709F00995FF91EF91BF91AF919F9175
:101D40008F917F916F915F914F913F912F910F9064
:101D50000FBE0F901F9018951F920F920FB60F9203
:101D600011242F933F934F935F936F937F938F93A0
:101D70009F93AF93BF93EF93FF93E0910222F09173
:101D80000322309709F00995FF91EF91BF91AF9130
:101D90009F918F917F916F915F914F913F912F9183
:101DA0000F900FBE0F901F9018951F920F920FB6B5
:101DB0000F9211242F933F934F935F936F937F93D1
:101DC0008F939F93AF93BF93EF93FF93E091002284
:101DD000F0910122309709F00995FF91EF91BF91A1
:101DE000AF919F918F917F916F915F914F913F91B3
:101DF0002F910F900FBE0F901F9018951F920F926A
:101E00000FB60F9211242F933F934F935F936F93CD
:101E10007F938F939F93AF93BF93EF93FF93E09143
:101E2000FE21F091FF21309709F00995FF91EF9184
:101E3000BF91AF919F918F917F916F915F914F91E2
:101E40003F912F910F900FBE0F901F9018951F92EA
:101E50000F920FB60F9211242F933F934F935F93DE
:101E60006F937F938F939F93AF93BF93EF93FF9362
:101E7000E091FC21F091FD21309709F00995FF9147
:101E8000EF91BF91AF919F918F917F916F915F91F2
:101E90004F913F912F910F900FBE0F901F9018956B
:101EA0001F920F920FB60F9211242F933F934F93CF
:101EB0005F936F937F938F939F93AF93BF93EF93B2
:101EC000FF93E091FA21F091FB21309709F00995F9
:101ED000FF91EF91BF91AF919F918F917F916F9102
:101EE0005F914F913F912F910F900FBE0F901F90D8
:101EF00018951F920F920FB60F9211242F933F93B4
:101F00004F935F936F937F938F939F93AF93BF9301
:101F1000EF93FF93E091F821F091F921309709F0C8
:101F20000995FF91EF91BF91AF919F918F917F9113
:101F30006F915F914F913F912F910F900FBE0F9036
:101F40001F9018951F920F920FB60F9211242F9386
:101F50003F934F935F936F937F938F939F93AF9331
:101F6000BF93EF93FF93E091F621F091F721309723
:101F700009F00995FF91EF91BF91AF919F918F91DA
:101F80007F916F915F914F913F912F910F900FBE75
:101F90000F901F9018951F920F920FB60F92112459
:101FA0002F933F934F935F936F937F938F939F9361
:101FB000AF93BF93EF93FF93E091F421F091F5215C
:101FC000309709F00995FF91EF91BF91AF919F91E3
:101FD0008F917F916F915F914F913F912F910F90D2
:101FE0000FBE0F901F9018951F920F920FB60F9271
:101FF00011242F933F934F935F936F937F938F930E
:102000009F93AF93BF93EF93FF93E091F221F091F1
:10201000F321309709F00995FF91EF91BF91AF91AE
:102020009F918F917F916F915F914F913F912F91F0
:102030000F900FBE0F901F9018951F920F920FB622
:102040000F9211242F933F934F935F936F937F933E
:102050008F939F93AF93BF93EF93FF93E091F02102
:10206000F091F121309709F00995FF91EF91BF911F
:10207000AF919F918F917F916F915F914F913F9120
:102080002F910F900FBE0F901F9018951F920F92D7
:102090000FB60F9211242F933F934F935F936F933B
:1020A0007F938F939F93AF93BF93EF93FF93E091B1
:1020B000EE21F091EF21309709F00995FF91EF9112
:1020C000BF91AF919F918F917F916F915F914F9150
:1020D0003F912F910F900FBE0F901F9018951F9258
:1020E0000F920FB60F9211242F933F934F935F934C
:1020F0006F937F938F939F93AF93BF93EF93FF93D0
:10210000E091EC21F091ED21309709F00995FF91D4
:10211000EF91BF91AF919F918F917F916F915F915F
:102120004F913F912F910F900FBE0F901F901895D8
:10213000CF93CFB7F894811528E0920711F461E0AE
:1021400005C0803428E0920731F462E083E0C1D317
:1021500064E083E018C0811529E0920711F461E082
:1021600005C0803429E0920731F462E084E0B1D305
:1021700064E084E008C081159A4071F461E085E074
:10218000A8D364E085E0A5D39FB7F89480919A2402
:102190008F5F80939A249FBFCFBFCF910895811501
:1021A00028E0920729F460931E2270931F2208955D
:1021B000803428E0920729F460931222709313224E
:1021C0000895811529E0920729F460930A227093FB
:1021D0000B220895803429E0920729F46093FE21B0
:1021E0007093FF21089581159A4021F46093F621A0
:1021F0007093F7210895CF93DF93E0912022F0911F
:102200002122848183FF06C08860848383E08383E6
:1022100086EF7DC0982F947121F083E083838FEF48
:1022200076C086FF40C0A0912222B09123228091E7
:1022300024229091252214962D913C911597821776
:10224000930764F49C012F5F3F4F20932422309327
:102250002522A80FB91F11968C9121C080912622AA
:102260009091272218962D913C91199782179307E8
:10227000C0F420912822222321F086818160868368
:1022800048C016960D90BC91A02D9C012F5F3F4F2A
:102290002093262230932722A80FB91F8C91878381
:1022A00038C083E02BC087FF31C0A0912222B091BB
:1022B0002322809126229091272218962D913C91DD
:1022C000199782179307F0F41696CD91DC91179722
:1022D0009C012F5F3F4F2093262230932722478176
:1022E000C80FD91F488318968D919C91199728176C
:1022F000390718F482E083830CC087E0838310924F
:102300002A2207C083E0838389EF01C08BEF80938B
:102310002A22DF91CF9108951F920F920FB60F924C
:1023200011242F933F934F935F936F937F938F93DA
:102330009F93AF93BF93EF93FF935DDFFF91EF9177
:10234000BF91AF919F918F917F916F915F914F91CD
:102350003F912F910F900FBE0F901F9018951F92D5
:102360000F920FB60F9211242F933F934F935F93C9
:102370006F937F938F939F93AF93BF93EF93FF934D
:102380003ADFFF91EF91BF91AF919F918F917F9134
:102390006F915F914F913F912F910F900FBE0F90D2
:1023A0001F9018958091820080FDFCCF0895609168
:1023B00080006270616024E0829FC00111248C73F0
:1023C000682B80E890E039D7EDCF609180006C7386
:1023D000636080E890E031D7E5CFBF92CF92DF9283
:1023E000EF92FF920F931F93CF93DF938C01EA013B
:1023F0006F3008F451C0BA80FC01828582FF0BC0A7
:1024000081E08A8384859585A685B78587839087B3
:10241000A187B28701C01A82F801C280D380E4800C
:10242000F580A70196016D8D7E8D8F8D98A10E94FC
:10243000D821811110C0F80127813085418552854E
:1024400069A17AA18BA19CA10E94D821811103C00E
:102450008A818B1509F16981643121F06A3019F4A0
:1024600061E001C062E0CD8EDE8EEF8EF8A2F80151
:10247000C780D084E184F284C9A2DAA2EBA2FCA2D4
:10248000CE01DF91CF911F910F91FF90EF90DF90E0
:10249000CF90BF900C943205DF91CF911F910F9197
:1024A000FF90EF90DF90CF90BF9008954F925F9292
:1024B0006F927F928F929F92AF92BF92CF92DF9254
:1024C000EF92FF920F931F93CF93DF933C01462E21
:1024D000FA0155245394541408F0CCC0C52DD0E013
:1024E00043018C0E9D1E2296C60DD71DD4018D91E1
:1024F0009C919C01DC010E941C285B016C019B01EA
:10250000A60160E070E080E090E0A380B480C58028
:10251000D680E780F084018512850E9422292383DA
:102520003483458356836783708781879287A88128
:10253000B9819D010E9416286B017C01FF0CCC081B
:10254000DC2C76019B01AC016C2D7C2D8C2D9C2DFF
:10255000A384B484C584D684E784F0880189128971
:102560000E94222923873487458756876787708B87
:10257000818B928BD4012D913C9183899489A5897B
:10258000B689820F931FA11DB11D838B948BA58BE0
:10259000B68B48815981662757FD6095762F8789CC
:1025A000908DA18DB28D840F951FA61FB71F878BAD
:1025B000908FA18FB28F838D948D0196838F948F8E
:1025C00028813981D4014D915C91249FC001259FC0
:1025D000900D349F900D1124A0E0B0E041A552A5CC
:1025E0002417350714F421A732A72881398143A580
:1025F00054A54217530714F423A734A7E4012881F4
:10260000398145A156A12417350710F425A336A317
:10261000E4012881398147A150A54217530710F4DE
:1026200027A330A741A952A963A974A9411551054F
:1026300061057105C1F077FF11C00097A105B105D3
:10264000B1F070956095509541955F4F6F4F7F4FFA
:10265000481759076A077B0754F405C048175907FC
:102660006A077B0724F481AB92ABA3ABB4ABD4E095
:102670005D0E31CFDF91CF911F910F91FF90EF90C1
:10268000DF90CF90BF90AF909F908F907F906F9092
:102690005F904F900895BF92CF92DF92EF92FF929A
:1026A0000F931F93CF93DF93EC018B01F89434E0E9
:1026B000F32E43E0E42E52E0D52ECC24C39467E001
:1026C000B62E9B818A81981709F488C08A812D8152
:1026D000922F96959823E881F981E90FF11D908159
:1026E000909316248F5F82238A83789480912F227F
:1026F0008430C9F480912D2290912E2220912B229A
:1027000030912C228217930760F4FC01E95EFB4DA7
:10271000209116242083019680932D2290932E22BF
:10272000D0CFB0922F2280912F22811107C08091AB
:102730001624893C31F6C0922F22C3CF813041F458
:10274000809116248A3D09F0BCCFD0922F22B9CFB8
:10275000823049F48091162410922B2280932C22EF
:10276000E0922F22AECF8330A1F4209116248091E5
:102770002B2290912C22822B80932B2290932C221F
:10278000CD9748F510922D2210922E22F0922F22F2
:1027900098CF873009F095CF809116248633D9F4ED
:1027A000809117248C3561F0A8F0803B81F08A3D40
:1027B00089F4A80160912D2287E194E277DE0BC0B5
:1027C000A80160912D2287E194E207DE04C00E94F7
:1027D000DB1F01C05ED510922F2273CF7894DF915A
:1027E000CF911F910F91FF90EF90DF90CF90BF900E
:1027F000089520913022211108C020E4FC01A8E5B1
:10280000B4E201900D922A95E1F781E080933022A5
:102810000895809131228E7F809331220895809196
:10282000312281608093312208958091322208956F
:1028300081E0809332220895109232220895089503
:102840008091510083FF0CC09FB7F89486EC809371
:102850005500809150008061809350009FBF10C050
:1028600083E4809352009FB7F89480915000886071
:10287000809350009FBF8091510083FFFCCFE4CF35
:102880008091510084FFFCCF08958FEF80937000FA
:102890008093710080937200809373008093740022
:1028A000809375008093760061E081E490E0C5D468
:1028B0008091510084FFC4DF64E080E490E0BDD4E7
:1028C0009FB7F894809150008E7F809350009FBFF7
:1028D00008959FB7F894E82FF0E0E059FF4F609516
:1028E0008081862380839FBF08959FB7F894E82F47
:1028F000F0E0E059FF4F8081862B80839FBF0895D1
:10290000CF93863011F4C8E101C0C0E0809151003E
:1029100084FF96DF6C2F616084E490E08ED460E4E5
:1029200080E0CF91D6CF60E480E0DFDF60E084E438
:1029300090E083C4FC0180E090E0262F30E0D901D4
:10294000082E02C0B595A7950A94E2F7A0FF05C02E
:10295000DF01A80FB91F50965C930196883091054E
:1029600071F740FF07C041FF02C0658301C0668365
:10297000618308956283089580E008950F931F9303
:1029800002E115E120E430E048E352E260E082E059
:102990000E946B1D1F910F91089510927C2210923E
:1029A0007A2281E080937822E9DF811141CF80E0B3
:1029B000089542CF2DEE34E140E050E26AE772E242
:1029C0008CE792E239C08091A9249091AA240497BF
:1029D00019F484E392E233CF08952091A124309139
:1029E000A224832F90E00397D9F4211119C080917C
:1029F000A5249091A6248430910591F424E332E239
:102A00002093A7243093A82423EE34E12093AB2411
:102A10003093AC248093A9249093AA2481E0089554
:102A200080E00895811107C06034710519F488E3CE
:102A300092E2DFDEA3CF0895CF93DF93EA015091B6
:102A40009F24452F407657FF56C0411136C08091D4
:102A5000A024863009F06FC039D1FC018285813213
:102A600009F069C08091A224813281F4CF010996D6
:102A70008093A7249093A82481852091A524309148
:102A8000A62490E02817390790F410C09785981372
:102A900052C0C093A724D093A82420893189809163
:102AA000A5249091A6242817390708F4C90180931A
:102AB000A9249093AA2481E03FC04032E1F52091FF
:102AC000A024223069F02330B1F56093A7247093DD
:102AD000A82481E090E08093A9249093AA242CC09C
:102AE0008093A7249093A82481E090E08093A92468
:102AF0009093AA2421C04032F1F44091A0244A309E
:102B000041F04B3061F04930B1F4F901DF91CF91E0
:102B100009942091A224FC01208381E00DC08091C2
:102B2000A5249091A624892B31F48091A124FB0146
:102B3000808381E001C080E0DF91CF910895809192
:102B4000A1248F773DC790918522992361F1E0916F
:102B50008322F09184220190F081E02D94818917E5
:102B600010F5E0938122F0938222228133812E0F8F
:102B70003F1FE217F30798F49181943061F492813A
:102B8000891309C09381691306C0E0938122F093F1
:102B9000822281E008959081E90FF11DEACFE09350
:102BA0008122F093822280E00895E0918322F091C7
:102BB00084220190F081E02D228133812E0F3F1F6E
:102BC000FC014081E40FF11DE217F30748F4818115
:102BD000843031F0853039F08081E80FF11DF4CF79
:102BE00080E090E00895CF0108951F93CF93DF9385
:102BF000182FA9DF882339F1C0918122D091822238
:102C0000CE01D3DFEC01009741F04C815D816B81F7
:102C10008A81E5D68111F4CF16C0E0918322F0912C
:102C2000842292818381E92FF82FE10FF11DE10FBA
:102C3000F11D0190F081E02D0190F081E02DDF91F8
:102C4000CF911F91099480E0DF91CF911F9108955A
:102C5000FF920F931F93CF93DF93C82F60E073DF32
:102C6000F82E882361F1E0918322F09184229281F1
:102C70008381E92FF82FEC0FF11DEC0FF11D00817E
:102C80001181D8011696ED91FC9117970995682F3F
:102C90008C2F59DFF82E882391F0C0918122D0919A
:102CA0008222CE0182DFEC01009719F08A81C3D71E
:102CB000F8CFD8011296ED91FC91139709958F2DBD
:102CC000DF91CF911F910F91FF9008958091812204
:102CD00090918222089508C6CF9380918522811118
:102CE00008C0109285221092862210928722CF91DE
:102CF0000895C0E0E0918322F09184220190F08158
:102D0000E02D8481C81768F78C2FA2DFCF5FF2CF48
:102D1000AFD5E2CFCF93809185228823F1F0C0E038
:102D2000E0918322F0918422A081B18114968C914C
:102D3000C81798F492818381E92FF82FEC0FF11DC9
:102D4000EC0FF11D0190F081E02D0084F185E02D64
:102D5000309709F00995CF5FE3CFCF910895CF92D7
:102D6000DF92FF920F931F93CF93DF931F92CDB704
:102D7000DEB71092A9241092AA241092AB241092CC
:102D8000AC241092AD241092AE2420919F2427FFF2
:102D900007C08091A5249091A624892B09F443C2F1
:102DA000822F807609F0D0C127FFFCC08091A52436
:102DB0009091A624009709F4C7C12F7109F09CC017
:102DC0002091A024263071F0283009F48CC0211104
:102DD000BBC1029709F0B8C162E070E086E892E2F8
:102DE000F5D5B0C12091A1243091A224832F992739
:102DF0008230910599F064F4019709F0A5C18091A2
:102E00003F2090914020DC016C9170E0DFD55AC0EA
:102E10008330910589F10F9709F196C1E0913F2028
:102E2000F09140208189281708F08EC13327220FA6
:102E3000331F220F331FE0914120F0914220E20F17
:102E4000F31F80819181FC0162817381BFD5E09184
:102E5000A724F091A82482E0818334C0809143208C
:102E600090914420009709F46FC1DC0112966D9196
:102E70007C911397ABD526C033272130310529F03B
:102E800038F02230310551F05FC1A9EAB0E208C044
:102E900064E070E084EB90E299D514C0AEE9B0E252
:102EA000EAE8F0E28D9190E08193919380E2EE392F
:102EB000F807C1F786E18093882066E170E088E832
:102EC00090E284D58091A5249091A6242091A924F4
:102ED0003091AA248217930708F034C18093A92463
:102EE0009093AA242FC1019709F02EC161E070E0F0
:102EF00085E892E26BD526C12130E1F52091A0242E
:102F00002A3009F021C1019709F01EC18091852264
:102F1000882309F419C1C090A324D090A42400915F
:102F2000832210918422D801ED91FC918481C816EE
:102F300008F00AC160E08C2D06DEF82E882309F423
:102F400003C1DD24CC0CDD1CD8011296ED91FC915F
:102F50001397EC0DFD1D0190F081E02D0680F781A7
:102F6000E02D09958093802261E070E080E892E294
:102F70002DD5E6C0223009F0E7C02091A024211110
:102F8000E3C0029709F0E0C08091A32484D590E0CB
:102F900080937E2290937F2262E070E08EE792E23F
:102FA00015D5D0C02F7109F07DC08091A024833049
:102FB00009F4CAC018F48130A1F0C6C0853019F0F8
:102FC000893039F1C1C08091A5249091A624892B24
:102FD00009F0BAC08FE995E18093AB249093AC24BB
:102FE000B1C08091A5249091A624892B09F0ACC092
:102FF0008091A1249091A224019709F0A5C080910D
:103000008622909187228D7F8093862290938722BB
:1030100099C08091A5249091A624892B09F094C091
:10302000D2D4882309F490C08091A1249091A22445
:103030009927E0913F20F0914020218930E0281726
:10304000390708F481C048DE2091A1243091A224E0
:1030500020938522222309F475C033272150304C58
:10306000220F331F220F331F809141209091422065
:10307000820F931F809383229093842210E0E0912B
:103080008322F09184220190F081E02D8481181731
:1030900008F058C060E0812FA8DD882309F454C0EF
:1030A0001F5FEDCF2130F9F48091A0248B3009F01F
:1030B0004BC08091A5249091A624892B09F044C08F
:1030C00080918522882309F43FC01091A324609148
:1030D000A124812F6983BCDD69818823A9F1812F17
:1030E00084DDF82E2DC0223079F58091A024813026
:1030F00019F0833091F028C08091A5249091A624E6
:10310000892B11F58091A1249091A224892BE1F4BF
:103110008091A324C7D4F82E13C08091A524909148
:10312000A624892B89F48091A1249091A224892B33
:1031300059F48091A32454D58091A32485D5F82EE9
:10314000FF2011F081E070C080919F248F71813049
:10315000B9F580918522882399F1C090A324D0905D
:10316000A4240091832210918422D801ED91FC9136
:103170008481C81628F560E08C2DE5DC882301F1F8
:10318000C6019927880F991FD8011296ED91FC91DD
:103190001397E80FF91F00811181D8011696ED9160
:1031A000FC9117970995682F8C2DCDDC882341F071
:1031B000D8011496ED91FC91159709958111C2CF14
:1031C00080919F248F71823071F5809185228823B0
:1031D00051F110E0E0918322F0918422A081B1812D
:1031E00014968C911817F8F492818381E92FF82FA7
:1031F000E10FF11DE10FF11DC080D180D6011696BF
:10320000ED91FC9117970995682F812F9CDC8823FD
:1032100051F0D6011496ED91FC9115970995811105
:1032200091CF1F5FD7CF80E00F90DF91CF911F919B
:103230000F91FF90DF90CF9008951BBEFC0128ED09
:1032400024BF608308958091CF0187FDFCCF08954E
:103250001F93CF93DF93C0ECD1E01A858A8761E09A
:103260008BEC91E0EADF1A87DF91CF911F910895EF
:10327000CF93DF93EC01E7DFECECF1E08081886035
:103280008083D05F88819081977F9083DF91CF91F9
:103290000895D9DF8091CF0181FF07C086E3809335
:1032A000CA0161E08BEC91E0C8CF0895CF93DF9322
:1032B00000D0CDB7DEB76A838983C5DF2CEC31E05F
:1032C000D9019C9198609C938981A82FB0E0B05F50
:1032D0006A816C93F9018081877F80830F900F90C2
:1032E000DF91CF9108951F93CF93DF93EC01ABDF74
:1032F00010E06991812FDADF1F5F1032D1F7DF9183
:10330000CF911F910895CF93DF931F92CDB7DEB772
:10331000898399DF898120E2829FC0011124E0EC3A
:10332000F1E012829183808385E30F90DF91CF914A
:103330008FCF4091CA01E62FF72F8093CA01849165
:103340004093CA010895282F2F70992787FD9095E3
:103350008827990F881F9927820F911D820F911D31
:1033600043E0880F991F4A95E1F7885B9C4D0895CB
:103370000F93E8ECF4E080818F7D808380818F7DE6
:103380008083E0E5F3E202E005931092522310926D
:10339000532300E2069300E40693E8E4F3E200E23C
:1033A000069300E406931092AB241092AC24109282
:1033B000AD241092AE241092A9241092AA24109247
:1033C00039230F9108950F9385E080933923E1E528
:1033D000F3E204E00593E9E4F3E204E005930F91DE
:1033E00008950F9383E08093392310925223109213
:1033F0005323E0E5F3E202E006930F910895E09194
:10340000AB24F091AC24309709F009940895982FDB
:103410009F70282F332727FD30952227330F221F37
:103420003327290F311D290F311D2250310949E061
:10343000429FC001439F900D1124875F9C4D0895CA
:1034400090917C2381110BC0992399F02FB7F894A8
:1034500090919A24915090939A242FBF0AC0911171
:1034600008C02FB7F89490919A249F5F90939A2464
:103470002FBF80937C2308958F929F92BF92CF920B
:10348000DF92EF92FF920F931F93CF93DF93B82EAB
:10349000BEDFEC018B2D57DF7C01DC011196EC9136
:1034A000E770E150E73040F4F0E0EE0FFF1FE15924
:1034B000FE4D0081118102C008E010E0ED81FE8127
:1034C0008B819C814881D701B7FE54C016962D91FF
:1034D0003C9117972E0F3F1F2D833E8328173907E6
:1034E000C1F1FC01E21BF30B9F012115F4E03F0742
:1034F00040F02FEF33E0C901B8010E94C427281B18
:10350000390B41FF0AC0C901B8010E94C42741E03C
:10351000892B09F040E0942F01C090E0888190FB56
:1035200081F98883D70116961D921C9217971296DF
:103530002D933C93139789819A812D813E81820F2F
:10354000931F14968D939C931597F70102E00693B1
:103550009AC041FF7FC04D7F4883D70116961D92C8
:103560001C92179712961D921C921397F70102E076
:10357000069389C01296CD90DC90139742FF11C03C
:1035800089809A80B8010E94C427B0E4BB9EB00134
:103590001124675B7D4DAC01C4018E0F9F1F0E94FB
:1035A000162A6D817E816C0D7D1D6D837E832B813E
:1035B0003C812617370710F42D833E83F70186815F
:1035C0009781C816D90609F045C08D819E81821762
:1035D000930709F43FC0281B390B2115F4E03F077E
:1035E00048F02FEF33E0C901B8010E94C427281B1F
:1035F000390B06C0C901B8010E94C427281B390B2A
:10360000D70112961D921C9213972017310778F458
:10361000888184608883B0E4BB9EC0011124875BED
:103620009D4DF70184839583068317830FC089819D
:103630009A814D815E81840F951FD70114968D93D9
:103640009C93159716962D933C931797F70102E0DC
:10365000069319C0888180FF16C08E7F8883EF8112
:10366000F885309781F06D817E814B2D80E0DF9170
:10367000CF911F910F91FF90EF90DF90CF90BF906F
:103680009F908F900994DF91CF911F910F91FF90A0
:10369000EF90DF90CF90BF909F908F9008950F9301
:1036A000CF93DF9380913923833029F4A8DEDF9113
:1036B000CF910F915DCE2091352330913623C0916B
:1036C000A924D091AA24C21BD30B71F58091372372
:1036D00090913823820F931F809337239093382340
:1036E0002091A5243091A6242817390721F0809134
:1036F0008822882341F084E080933923E8E4F3E2D0
:1037000002E0069338C0E091AD24F091AE243097EA
:1037100099F00995882381F0109235231092362371
:10372000C091A924D091AA24C830D10528F01092C4
:103730008822C8E0D0E003C081E080938822C09353
:103740005223D093532320913523309136238091F7
:10375000A7249091A824820F931F809354239093C1
:103760005523C20FD31FC0933523D0933623E0E5F2
:10377000F3E202E00693DF91CF910F9108950F934A
:10378000CF93DF931F92CDB7DEB78091CC0480FF3B
:1037900067C081E08093CC04E8E4F3E200E806939C
:1037A000E0E5F3E200E806938093CA04E8E4F3E27C
:1037B00000E1069380913923882329F083508230D9
:1037C00008F41DDED5DD80914A2390914B230897A4
:1037D00009F048C088E0EDE2F3E2AFE9B4E201901D
:1037E0000D928A95E1F78091C80480628093C804A5
:1037F0008091C80480628093C804B1DA811103C04B
:10380000E2DD81E030C090919F2497FF0FC01092BD
:10381000372310923823109235231092362392E0EA
:103820009093392389833BDF89811DC02091A52492
:103830003091A624232B21F48983D3DD898113C001
:10384000109237231092382310923523109236238A
:1038500091E090933923E8E4F3E202E0069303C099
:1038600080E001C081E00F90DF91CF910F9108952A
:10387000CF93CFB7F894E1ECF4E080818E7F808322
:103880001092C00410824FD880E0DADD9FB7F89420
:10389000EEE9F4E28081815080839FBFCFBFCF915A
:1038A0000895CF93CFB7F89481E0CADDEAECF4E055
:1038B00080E4808380E28083E1ECF4E080818160B9
:1038C0008083A9ECB4E08C9182608C93E8ECF4E006
:1038D0008081806480838C9181608C9380818068FA
:1038E0008083CFBFCF910895CF9380E309D8809193
:1038F000C00480648093C004CFB7F8941092492329
:10390000109251231092592310926123109269232F
:1039100010927123809109238E7F809309238091D7
:1039200012238E7F8093122380911B238E7F80939E
:103930001B23809124238E7F809324236AE170E0EF
:1039400082E0F7DC8F3F09F48FE18093FA046BE1AA
:1039500070E082E0EEDC8F3F09F48FE18093FB049E
:103960008091C00482608093C0048091C00480680C
:103970008093C0048091C00480618093C00488E477
:1039800093E28093C6049093C7048091C004806240
:103990008093C0048FEF8093C5048091C804816038
:1039A0008093C80410927C239FB7F89480919E2442
:1039B0008F5F80939E249FBF74DFCFBFCF91089508
:1039C0008093C30408958091C30408958093A7242D
:1039D0009093A8246093A9247093AA2408950F9328
:1039E0001F93CF93DF931F92CDB7DEB78A01698310
:1039F000AADCFC018181807C6981811143C06370F4
:103A0000613029F010F490E403C090E801C090EC1C
:103A100000381105E1F050F400321105A1F0003436
:103A2000110599F00031110561F419C0011582E00A
:103A3000180789F00F3FA3E01A0779F0011511402C
:103A400041F080E00DC082E00BC083E009C084E05B
:103A500007C085E005C086E003C087E001C081E0C3
:103A6000118226E02083892B81838181807C803CA8
:103A700021F481818770873039F081818062818370
:103A800081E003C080E001C081E00F90DF91CF9121
:103A90001F910F91089557DCFC01818182FB8827DB
:103AA00080F90895CF93C82F4EDCFC01818182FFFD
:103AB0000FC091819B7F91838C2FA9DCFC018081B9
:103AC00080FF06C08E7F80830780F085E02D0995FA
:103AD00081E0CF9108958F929F92BF92CF92DF9213
:103AE000EF92FF920F931F93CF93DF931F92CDB767
:103AF000DEB7B82E6A017901698389DC4C018B2D10
:103B000022DCFC018181807C6981882309F45AC010
:103B10008181807C803C19F0818182FD53C08FB708
:103B2000F894D4019C9190FF03C08FBF80E04BC0FC
:103B30009160D4019C938FBFD4011196CD92DC92F9
:103B400012971396ED92FC92149715961D921C9263
:103B5000169717960D931C93189791E0611104C066
:103B6000E114F10409F090E0D4018C9190FB81F90B
:103B70008B7F8C93B7FC20C08181807C803CD1F40A
:103B8000A181A770A150A73040F4B0E0AA0FBB1FDD
:103B9000A159BE4D6D917C9102C068E070E0C701F3
:103BA0000E94C427892B31F0F40180818E7F8083AD
:103BB00080E009C012821382168217828B2D5CDC92
:103BC00081E001C080E00F90DF91CF911F910F91B4
:103BD000FF90EF90DF90CF90BF909F908F900895CF
:103BE0000F931F93CF93DF93182FADDBEC01812F41
:103BF0000EDCDC01FE0102E005938C9180FF16C013
:103C00008E7F8C931796ED91FC911897309771F0F9
:103C100017FF03C06E817F8102C06A817B81412FC3
:103C200081E0DF91CF911F910F910994DF91CF91A6
:103C30001F910F910895CF93C82FD2DF8C2F83DB74
:103C4000FC011182CF9108950F93CF93C82F7BDB96
:103C5000FC0191819460918301E006938C2FC0DF79
:103C600081E0CF910F9108951F920F920FB60F929E
:103C700011240F932F933F934F935F936F937F93F1
:103C80008F939F93AF93BF93EF93FF938091CB0458
:103C900087FF07C080E88093CA043CD80E941514AF
:103CA00082C08091CB0482FF18C084E08093CA0454
:103CB0008091502386FF77C08091CC0481FD73C032
:103CC0005EDD811170C080913923813011F489DB70
:103CD0006AC0843009F067C021C08091CB0481FFA5
:103CE00026C082E08093CA048091482386FF5BC08F
:103CF0008091CC0481FD57C042DD811154C0809178
:103D00003923823041F484E080933923E8E4F3E2FC
:103D100002E0069348C0833009F045C0E1E5F3E2D4
:103D200004E00593E9E4F3E204E005933CC08091EC
:103D3000CB0484FF21C080E18093CA0481E050DF7E
:103D400081E84EDF0E946C161092C3041092492342
:103D500096E09093482380E4809349231092512366
:103D600090935023809351238DE293E280934C23D0
:103D700090934D23FDDA17C08091CB0486FF08C0D5
:103D800080E48093CA0480E05BDB0E9409140BC0CE
:103D90008091CB0485FF07C080E28093CA0481E054
:103DA0004FDB0E940F14FF91EF91BF91AF919F9154
:103DB0008F917F916F915F914F913F912F910F91D3
:103DC0000F900FBE0F901F9018951F920F920FB675
:103DD0000F9211240F931F932F933F934F935F9351
:103DE0006F937F938F939F93AF93BF93CF93DF9303
:103DF000EF93FF938091CC0481FF1AC082E08093FF
:103E0000CC048091C504E8E4F3E28195880FE81BB7
:103E1000F1092081318128543342E3E0369527951A
:103E2000EA95E1F7C22FC69520FF06C080E805C0DD
:103E3000A6DC882319F386C080E0C80F8C2F83DAB4
:103E4000FC01808185FF7EC000E20693C11174C031
:103E500080913923843019F4D2DA8ADA73C0C091A0
:103E60004A23D0914B238091A9249091AA240091B8
:103E700035231091362398012C0F3D1F821793078D
:103E800018F4EC01C01BD10B8091A7249091A824B9
:103E9000AE016DE273E2800F911F0E94162A0C0F93
:103EA0001D1F0093352310933623289769F48091C2
:103EB000372390913823800F911F2091A5243091B2
:103EC000A6248217930788F00093A9241093AA24AC
:103ED000E091AD24F091AE24309729F0099581113D
:103EE00002C071DA2FC07DDA2DC08091A924909193
:103EF000AA2480179107D9F4E091AD24F091AE2463
:103F0000309779F30995882361F380913723909155
:103F100038232091352330913623820F931F8093CD
:103F20003723909338231092352310923623E8E4F8
:103F3000F3E202E0069306C0C03811F4B0DB02C021
:103F40008C2F9ADAFF91EF91DF91CF91BF91AF91D2
:103F50009F918F917F916F915F914F913F912F91A1
:103F60001F910F910F900FBE0F901F9018956150E9
:103F70007109810991096115710581059105B9F7EB
:103F8000089580917F238F5F80937F23809108061F
:103F900085FD10C080917D2390917E2380319742D2
:103FA00048F480917D2390917E23019680937D2318
:103FB00090937E2308950F931F93CF93DF93CDB7F4
:103FC000DEB7A097CDBFDEBF0E94881680E00E94BA
:103FD000E7050DE315E2F801608171818DE791E25B
:103FE0000E946B2A80E40E94E705F80160817181DC
:103FF0008EE891E20E946B2A80EB89834AD9CE0138
:10400000019671D98FE37FD960E874E88EE190E082
:10401000AEDF80E00E94D7110E94E511A096CDBFCF
:10402000DEBFDF91CF911F910F910895CF93DF9362
:1040300080E098E00E949810C0E0D8E08CED95E018
:104040008EA39FA361EC7FE180E098E00E94CF10F7
:104050008E818C7F8E838E8181608E838881807F2C
:104060008460888380E09AE00E949810E0E0FAE0A3
:104070008EEE92E086A397A38181887F83608183FF
:1040800088EC90E086A797A78181806881838081F2
:10409000807F85608083DF91CF910895CF93DF93F8
:1040A000CDB7DEB7A097CDBFDEBF88EB90E280939F
:1040B0003D2590933E2587E08093A200789480EE82
:1040C00097E0D6D8803B69F48FEF8983E2D8CE01A0
:1040D000019609D98FE317D9E091C620F091C72046
:1040E00009951092992410929A2410929B24109270
:1040F0009C2410929D2411E010939E240E9445144C
:104100000E94690B0E94FF0A91DF6AE08FEA94E245
:104110000E94320564E184EE94E20E9432050E941E
:10412000070A80E00E94E70560913D2570913E25D9
:104130008FE991E20E946B2A80E40E94E7051F92BA
:104140001F931F921F938AEA91E29F938F9380910E
:104150003E258F9380913D258F930E942A2A60E807
:1041600079EB8AE290E003DF80E00E94E70560914E
:104170003D2570913E2589EB91E20E946B2A80E4F7
:104180000E94E70560913D2570913E258AEC91E201
:104190000E946B2A0E946B16CDBFDEBF8091252541
:1041A0008F3F31F476D889E195E29DD881E0ABD894
:1041B00010E000E083E0F82E8091480680FD10C0FA
:1041C0008091B0248A3061F08091E524843111F02F
:1041D00012E001C010E06AE08FEA94E20E9432052A
:1041E0008091480681FD0FC08091E524843159F00B
:1041F00011E08091B0248A3009F410E064E184EE8B
:1042000094E20E94320511110CC08091B02490916B
:10421000E524923029F011E0813019F010E001C05E
:1042200012E08091080685FF54C0F89480917D23A8
:1042300090917E2378949C01255631092B36374086
:10424000C8F40F5F053088F0113039F48091E5240F
:10425000843151F012E000E008C0123029F480915E
:10426000B0248A3009F011E000E00093AF240093FD
:10427000E42429C09C01205D374028353B41F8F4F7
:104280008FEA94E20E94610584EE94E20E94610547
:1042900080E00E94E70560913D2570913E258BED01
:1042A00091E20E946B2A80E40E94E70560913D251F
:1042B00070913E258AEC91E20E946B2A04C08832FC
:1042C000934208F078DEF89410927D2310927E23BA
:1042D00078948091312283708330E9F580917F2337
:1042E0008B3F68F110927F23113029F48FEA94E21A
:1042F0000E942F0606C0123021F484EE94E20E9440
:104300002F068091B0248A30D1F48091E524843145
:10431000B1F480E00E94E70560913D2570913E2553
:1043200089EB91E20E946B2A80E40E94E70560918C
:104330003D2570913E258AEC91E20E946B2A6FEA3E
:1043400074E288E094E20E944B1364EE74E28EE023
:1043500094E20E944B138091312280FF15C080911E
:10436000312281FD11C060E079E08DE390E0FFDD56
:104370008091312280FF20CFF092312260E874E8F2
:104380008EE190E0F4DD18CF8091312280FD14CFD2
:104390008091312281FF10CF60E079E08DE390E0E1
:1043A000E6DD8091312280FD07CF1092312204CFCB
:1043B00050D108F481E008950CD096C18ED140F020
:1043C00085D130F021F45F3F19F067C15111C0C1B0
:1043D0006AC19BD198F39923C9F35523B1F3951B77
:1043E000550BBB27AA2762177307840738F09F5F16
:1043F0005F4F220F331F441FAA1FA9F333D00E2E85
:104400003AF0E0E830D091505040E695001CCAF7F1
:1044100029D0FE2F27D0660F771F881FBB1F2617B6
:1044200037074807AB07B0E809F0BB0B802DBF0189
:10443000FF2793585F4F2AF09E3F510568F02DC12A
:1044400087C15F3FECF3983EDCF3869577956795DF
:10445000B795F7959F5FC9F7880F911D969587953A
:1044600097F90895E1E0660F771F881FBB1F621759
:1044700073078407BA0720F0621B730B840BBA0B17
:10448000EE1F88F7E0950895BEE304D008F490E8A5
:104490000895BFE322273327A9013FD158F19F5741
:1044A00040F1B91738F1BFE3B91B9927B8503AF476
:1044B000660F771F881F991FB395D2F316C0B850A7
:1044C0004AF0232F342F452F562F672F782F882718
:1044D000B850BAF7B85F49F08695779567955795C4
:1044E000479537952795BA95B9F70EF4DFD088949C
:1044F0000895889460E070E0CB0108950ED188F0B3
:104500009F5790F0B92F9927B751A0F0D1F0660FBF
:10451000771F881F991F1AF0BA95C9F712C0B130DA
:1045200081F015D1B1E0089512C1672F782F882747
:10453000B85F39F0B93FCCF3869577956795B39519
:10454000D9F73EF490958095709561957F4F8F4F88
:104550009F4F089597FB0EF4A9D03EC0E89409C080
:1045600097FB3EF490958095709561957F4F8F4FA6
:104570009F4F9923A9F0F92F96E9BB279395F695BC
:10458000879577956795B795F111F8CFFAF4BB0F3A
:1045900011F460FF1BC06F5F7F4F8F4F9F4F16C09E
:1045A000882311F096E911C0772321F09EE8872F28
:1045B000762F05C0662371F096E8862F70E060E0E4
:1045C0002AF09A95660F771F881FDAF7880F96955D
:1045D000879597F90895E894F92F96EBFF2381F0DA
:1045E000121613061406440B9395F6958795779546
:1045F000679557954040FF23B9F71BC09927089549
:10460000882351F49850D2F7872B762F652F542F9B
:10461000432F322F20E0B1F3121613061406440B79
:1046200088233AF09A95440F551F661F771F881FFD
:10463000CAF755234AF4440F551F11F460FF04C014
:104640006F5F7F4F8F4F9F4F880F9695879597F994
:104650000895990F0008550FAA0BE0E8FEEF161613
:104660001706E807F907C0F012161306E407F50766
:1046700098F0621B730B840B950B39F40A2661F0DA
:10468000232B242B252B21F408950A2609F4A1407D
:10469000A6958FEF811D811D089597F99F6780E88A
:1046A00070E060E008959FEF80EC0895909580950C
:1046B0007095609550954095309521953F4F4F4F9F
:1046C0005F4F6F4F7F4F8F4F9F4F089500240A9485
:1046D0001616170618060906089500240A941216DD
:1046E0001306140605060895092E0394000C11F410
:1046F000882352F0BB0F40F4BF2B11F460FF04C0BD
:104700006F5F7F4F8F4F9F4F089557FD9058440F15
:10471000551F59F05F3F71F04795880F97FB991F20
:1047200061F09F3F79F087950895121613061406DD
:10473000551FF2CF4695F1DF08C01616170618066A
:10474000991FF1CF86957105610508940895E89445
:10475000BB2766277727CB0197F908950BD0C4CFE5
:10476000B5DF28F0BADF18F0952309F096CF9BCF7C
:104770001124EECFCADFA0F3959FD1F3950F50E03F
:10478000551F629FF001729FBB27F00DB11D639F03
:10479000AA27F00DB11DAA1F649F6627B00DA11DA9
:1047A000661F829F2227B00DA11D621F739FB00D4F
:1047B000A11D621F839FA00D611D221F749F3327BF
:1047C000A00D611D231F849F600D211D822F762F58
:1047D0006A2F11249F5750408AF0E1F088234AF055
:1047E000EE0FFF1FBB1F661F771F881F91505040A1
:1047F000A9F79E3F510570F050CFAACF5F3FECF371
:10480000983EDCF3869577956795B795F795E7958C
:104810009F5FC1F7FE2B880F911D9695879597F99D
:10482000089511F40EF43FCF3EC077DFD0F3992303
:10483000D9F3CEF39F57550B87FF43D00024A0E652
:1048400040EA900180585695979528F4805C660F51
:10485000771F881F20F026173707480730F4621BA0
:10486000730B840B202931294A2BA69517940794A2
:10487000202531254A2758F7660F771F881F20F01B
:1048800026173707480730F4620B730B840B200D93
:10489000311D411DA09581F7B901842F9158880FD2
:1048A0009695879508959F3F31F0915020F4879514
:1048B00077956795B795880F911D9695879597F988
:1048C000089591505040660F771F881FD2F70895C2
:1048D000A3E1B0E0EDE6F4E284C47C011B016A01CF
:1048E000FC0116821782838181FF49C3BE016F5F7D
:1048F0007F4F4B01F7019381F10193FD859193FF68
:1049000081911F01882309F436C3853239F493FD60
:10491000859193FF81911F01853231F4B70190E0B9
:10492000A8D556016501E6CF10E0512C20E02032D9
:10493000A0F48B3269F030F4803259F0833269F49C
:1049400020612CC08D3239F0803339F4216026C0CB
:104950002260246023C0286021C027FD27C030EDDD
:10496000380F3A3078F426FF06C0FAE01F9F300D6A
:104970001124132F13C06AE0569E300D1124532EBC
:1049800020620CC08E3221F426FDF5C2206406C0E0
:104990008C3611F4206802C0883641F4F10193FD91
:1049A000859193FF81911F018111C1CF9BEB980FDE
:1049B000933018F42061805E06C09BE9980F933015
:1049C00008F09AC12F7E26FF16E02F73722E8536CF
:1049D00021F4F22FF0647F2E08C0863621F4622F76
:1049E0006068762E02C01111115077FE07C01C338B
:1049F00048F444244394410E27E00BC0183030F4AF
:104A0000212F06C027E04CE3442E03C027E017E027
:104A1000412C560174E0A70EB11CF6016081718132
:104A200082819381042DA4011ED46C01098100FFB1
:104A300002C003FF06C071FC07C072FC08C0612CF5
:104A400008C03DE2632E05C02BE2622E02C090E258
:104A5000692E802F8C7081F1662011F084E001C0F6
:104A600083E0851510F0512C0AC0581A73FC07C05A
:104A7000B70180E290E0FDD45A94D1F7F4CF6620DC
:104A800021F0B701862D90E0F4D403FD03C000E0CF
:104A900012E002C00CEF11E0F72DF0717F2EF8014B
:104AA0008491882309F45EC271108052B70190E0AE
:104AB000E0D40F5F1F4FF3CF77FE0FC04C0C04FF05
:104AC00004C08A81813309F44A94141474F5F8E01F
:104AD000F41578F588E0482E2CC076FC2AC0812F8A
:104AE00090E08C159D059CF06CEFC6166FEFD60616
:104AF00074F0772D7068772E0AC0E2E0F0E0EC0FDA
:104B0000FD1FE10FF11D8081803319F41150111147
:104B1000F4CF77FE0EC044244394410E812F90E0E1
:104B2000C816D9062CF41C1904C04424439401C0AF
:104B300010E077FE07C01C141D043CF496012F5FA3
:104B40003F4F05C025E030E002C021E030E06620A4
:104B500011F02F5F3F4F112331F0412F50E04F5F95
:104B60005F4F240F351F452D50E02417350714F4EF
:104B7000521A01C0512C872D897041F4552031F013
:104B8000B70180E290E075D45A94F8CF662021F006
:104B9000B701862D90E06DD473FC08C0552031F02C
:104BA000B70180E390E065D45A94F8CF77FE5DC0FA
:104BB0009C2D8D2DD7FE02C090E080E0692E782ECE
:104BC00040E050E0C601841991098C879D879601C9
:104BD00026193709280D391D812F90E0EE27FF2770
:104BE000E81BF90BEE87FF87FFEF6F167F0661F476
:104BF000B7018EE290E02B8B3A8B488B598B39D4DE
:104C0000598948893A892B89C614D70454F06C8590
:104C10007D85661577052CF4F901E40FF51F818178
:104C200001C080E371E0671A71084F5F5F4FEE8546
:104C3000FF856E167F0664F0B70190E02B8B3A8BF0
:104C4000488B598B16D42B893A8948895989CCCFFE
:104C50006C147D0439F49A81963318F4953311F469
:104C600004FF81E3B70190E045C08A81813309F0F8
:104C70000F7EB70190E0FDD3111105C074FE16C080
:104C800085E490E015C0B7018EE290E0F2D382E0B7
:104C900066246394680EF401E80FF11D8081B7016A
:104CA00090E0E7D3115051F3862DF2CF85E690E0E6
:104CB000B701DFD3D7FC05C0C114D10439F404FF18
:104CC00005C0D194C194D1088DE201C08BE2B70137
:104CD00090E0CFD380E36AE0C616D1042CF08F5F5A
:104CE000FAE0CF1AD108F7CFB70190E0C2D3B701ED
:104CF000C601C096BED336C1833631F0833779F012
:104D0000833509F054C020C0560172E0A70EB11CD3
:104D1000F6018081898301E010E0640113C056012F
:104D2000F2E0AF0EB11CF601C080D18026FF03C0B7
:104D3000612F70E002C06FEF7FEFC6012B8B7FD336
:104D40008C012B892F7714C05601F2E0AF0EB11CF5
:104D5000F601C080D18026FF03C0612F70E002C041
:104D60006FEF7FEFC6012B8B56D38C012B89206808
:104D7000722E23FD18C0852D90E00817190798F4AE
:104D8000B70180E290E075D35A94F5CFF60177FC35
:104D9000859177FE81916F01B70190E06AD3511040
:104DA0005A94015011090115110581F7DBC08436B1
:104DB00011F0893649F5560127FF09C0F4E0AF0E1E
:104DC000B11CF60160817181828193810AC0F2E099
:104DD000AF0EB11CF60160817181882777FD809547
:104DE000982F022F0F7697FF08C0909580957095A9
:104DF00061957F4F8F4F9F4F00682AE030E0A401FC
:104E000092D3C82EC8183DC0022F853721F40F7EDB
:104E10002AE030E01DC0097F8F3691F018F4883504
:104E200059F0A9C0803719F0883711F0A4C000618B
:104E300004FF09C0046007C024FF08C0066006C064
:104E400028E030E005C020E130E002C020E132E09F
:104E5000560107FF09C0F4E0AF0EB11CF6016081F6
:104E600071818281938108C0F2E0AF0EB11CF6011E
:104E70006081718180E090E0A40155D3C82EC818EC
:104E80000F7706FF0BC0202F2E7FC11650F404FFB2
:104E90000AC002FD08C0202F2E7E05C0DC2C202F6A
:104EA00003C0DC2C01C0D12E24FF0DC0FE01EC0D8F
:104EB000F11D8081803311F4297E09C022FF06C0D4
:104EC000D394D39404C0822F867809F0D39423FD21
:104ED00012C020FF06C01C2DD51418F4150D1D1985
:104EE000D52CD51460F4B70180E290E02B8BC1D2B1
:104EF000D3942B89F6CFD51410F45D1801C0512C32
:104F000024FF11C0B70180E390E02B8BB2D22B8934
:104F100022FF16C021FF03C088E590E002C088E7A9
:104F200090E0B7010CC0822F867851F021FD02C0BD
:104F300080E201C08BE227FD8DE2B70190E099D2BB
:104F4000C11630F4B70180E390E093D21150F8CF4E
:104F5000CA94F401EC0DF11D8081B70190E089D273
:104F6000C110F6CF552009F4DDCCB70180E290E006
:104F700080D25A94F7CFF7018681978102C08FEFD4
:104F80009FEF6396E2E146C1AA1BBB1B51E107C03C
:104F9000AA1FBB1FA617B70710F0A61BB70B881FC9
:104FA000991F5A95A9F780959095BC01CD01089558
:104FB000A1E21A2EAA1BBB1BFD010DC0AA1FBB1F1D
:104FC000EE1FFF1FA217B307E407F50720F0A21B8F
:104FD000B30BE40BF50B661F771F881F991F1A94FC
:104FE00069F760957095809590959B01AC01BD0126
:104FF000CF010895052E97FB16F400940FD057FDAE
:1050000005D0D6DF07FC02D046F408C05095409585
:10501000309521953F4F4F4F5F4F08959095809564
:10502000709561957F4F8F4F9F4F089505D0332323
:1050300012F48A1B9B0B10C0A29FB001B39FC0014A
:10504000A39F700D811D1124911DB29F700D811DB4
:105050001124911D0895F0DFB7FF0895821B930B73
:105060000895E894DF93CF93FC01DB01E5DF7F93A4
:105070006F93E9019A01AC01BF93AF933F932F93D4
:10508000DF01DADF26F46C1B7D0B820B930B9E0194
:10509000EB01FC01E0D0AF91BF912F913F91DBD0AC
:1050A000BE01CF01F9012F913F91CF91DF9108957A
:1050B000689401C0E894F92FF12B0AF027C0A0E012
:1050C000B0E0E4E6F8E293C0092E05941AF479D032
:1050D000112392F4F0E80F26FFEFE094F09400958E
:1050E0001095B094C094D094A194BF0ACF0ADF0A5F
:1050F000EF0AFF0A0F0B1F0B13D007FC62D0CDB7CE
:10510000DEB7ECE08DC0689401C0E8948F929F9266
:10511000CF93DF9305D0DF91CF919F908F9008952B
:1051200088249924F401E401B0E49F93AA279A15F6
:105130008B049C04ED05FE05CF05D007A10798F46C
:10514000AD2FDC2FCF2FFE2FE92D982C892E982FF5
:10515000872F762F652F542F432F322F2227B850B9
:1051600031F7BF9127C01B2EBF91BB27220F331FE2
:10517000441F551F661F771F881F991F881C991C85
:10518000EE1FFF1FCC1FDD1FAA1FBB1F8A149B042D
:10519000EC05FD05CE05DF05A007B10748F08A182C
:1051A0009B08EC09FD09CE09DF09A00BB10B2160BA
:1051B0001A94E1F62EF49401AF01BE01CD01000C6A
:1051C000089560957095809590953095409550958F
:1051D00021953F4F4F4F5F4F6F4F7F4F8F4F9F4FE7
:1051E00008952F923F924F925F926F927F928F928B
:1051F0009F92AF92BF92CF92DF92EF92FF920F9366
:105200001F93CF93DF93CDB7DEB7CA1BDB0BCDBFA8
:10521000DEBF09942A88398848885F846E847D843B
:105220008C849B84AA84B984C884DF80EE80FD804E
:105230000C811B81AA81B981CE0FD11DCDBFDEBFEC
:10524000ED0108952A0D3B1D4C1D5D1D6E1D7F1D3A
:10525000801F911F0895F0DE460F571FC81FD91FEA
:1052600008F431960895283008F027E03327DA0152
:10527000990F311D87FD916000966105710539F424
:1052800032602E5F3D9330E32A95E1F708959F3F0A
:1052900030F080387105610509F03C5F3C5F3D935B
:1052A000913008F08068911DDF93CF931F930F9387
:1052B000FF92EF92192F987F9695E92F96959695E4
:1052C000E90FFF27E25AFD4F99273327EE24FF24E9
:1052D000A701E70105900894079428F4360FE71E0C
:1052E000F81E491F511D660F771F881F991F0694CE
:1052F000A1F70590079428F4E70EF81E491F561FE2
:10530000C11D770F881F991F661F0694A1F705908E
:10531000079428F4F80E491F561FC71FD11D880F88
:10532000991F661F771F0694A1F70590079420F434
:10533000490F561FC71FD81F990F661F771F881F59
:105340000694A9F784911095177041F0D695C795EA
:1053500057954795F794E7941A95C1F7E4E0F2E082
:1053600068941590159135916591959105907FE21E
:105370007395E118F10A430B560BC90BD009C0F71E
:10538000E10CF11E431F561FC91FD01D7EF4703360
:1053900011F48A95E6CFE894015030F0080F0AF432
:1053A0000027021708F4202F2395022F7A3328F0C4
:1053B00079E37D932A95E9F710C07D932A9589F6C4
:1053C000069497956795379517951794E118F10A04
:1053D000430B560BC90BD00998F023957E9173951A
:1053E0007A3308F070E37C932013B8F77E917061F4
:1053F0007D9330F0839571E37D9370E32A95E1F717
:105400001124EF90FF900F911F91CF91DF91992779
:1054100087FD90950895FC01059061507040011042
:10542000D8F7809590958E0F9F1F0895FB01DC01A2
:1054300002C001900D9241505040D8F70895FC01F0
:105440006150704001900110D8F7809590958E0FB3
:105450009F1F0895A0E0B0E0EFE2FAE2D2CEAE01E5
:10546000475F5F4F6F8178858D819E8131DAE2E001
:10547000E1CE0F931F93CF93DF93182F092FEB01EA
:105480008B8181FD03C08FEF9FEF20C082FF10C092
:105490004E815F812C813D81421753077CF4E88166
:1054A000F9819F012F5F3F4F28833983108306C006
:1054B000E885F985812F0995892B29F72E813F8170
:1054C0002F5F3F4F2E833F83812F902FDF91CF910E
:1054D0001F910F910895EF92FF920F931F93CF9317
:1054E000DF938B01DB0113962C9121FF16C0EC0199
:1054F000E12CF12C8991882371F0D8011896ED9157
:10550000FC911997B8010995892BA1F3EE24EA942F
:10551000FF24FA94EFCFC70102C08FEF9FEFCDB702
:10552000DEB7E6E083CEFA01AA27283051F1203118
:1055300081F1E8946F936E7F6E5F7F4F8F4F9F4F27
:10554000AF4FB1E03ED0B4E03CD0670F781F891F69
:105550009A1FA11D680F791F8A1F911DA11D6A0F37
:10556000711D811D911DA11D20D009F468943F91EA
:105570002AE0269F11243019305D3193DEF6CF01E9
:105580000895462F4770405D4193B3E00FD0C9F7AF
:10559000F6CF462F4F70405D4A3318F0495D31FD1C
:1055A0004052419302D0A9F7EACFB4E0A69597956F
:1055B000879577956795BA95C9F700976105710545
:1055C00008959B01AC010A2E06945795479537958F
:1055D0002795BA95C9F7620F731F841F951FA01DE9
:0655E0000895F894FFCFCE
:1055E60006FFFF0901A10109020903150026FF00B4
:1055F60075089540810209040905150026FF007506
:10560600089540910209060907150026FF0075084E
:105616009504B102C0CD14D914DA14BC1400007676
:1056260020452000004C2049203520000902290091
:1056360001010080FA0904000002030000000921AC
:10564600110100012235000705810340000407050A
:105656000203400004001201000200000008EB03F0
:105666000224000101020001000300000000000006
:105676000000000000000000000000000000506F65
:105686007765724D65746572005320466F65727357
:1056960074657200040309040000000200000000A3
:1056A6000A0600000000FE4055726D7325643A201C
:1056B60020202025352E3266560049726D732564EA
:1056C6003A2020202025352E31664100556D656132
:1056D6006E25643A20202025352E32665600496D07
:1056E60065616E25643A20202025352E31664100FD
:1056F600556D696E25643A2020202025352E3266A8
:105706005600496D617825643A2020202025352EE3
:105716003166410055256400202020323656004966
:105726002564002025342E31664100507065616B7A
:1057360025643A20202025352E3266570050726D9A
:105746007325643A2020202025352E326657001016
:105756000020004000800000010002FF03626F6F1E
:10576600746C6F6164657220202020202000202048
:105776002020202020202020202020202020005013
:105786006F7765724D6574657200446973706C61FC
:1057960079207625642E25640077616974696E67C1
:1057A60020666F722064617461002E2E2E202020E8
:1057B6002020202020202020202000726573657480
:0C57C60020202020202020202020200077
:00000001FF
